:03000000020006F5
:03005F0002000399
:0300030002007583
:20006200758901758A00758C35D28C308DFDC28CC28D227EFA7F008E902080FD0EBE0001F4
:140082000F8E90C007C006120062D006D0073080FD80E6225A
:06003500E478FFF6D8FD9F
:200013007900E94400601B7A0090009A780175A000E493F2A308B8000205A0D9F4DAF275F9
:02003300A0FF2C
:20003B007800E84400600A790175A000E4F309D8FC7800E84400600C7900900001E4F0A3C3
:04005B00D8FCD9FAFA
:0D000600758107120096E582600302000379
:04009600758200224D
:00000001FF
