:03000000020006F5
:1B005F00750801750900750A02750B00750C03750D00750E04750F0002000373
:030003000203797C
:20007A00758901758A00758CF5D28C308DFDC28CC28D22758901758A00758C35D28C308D4C
:20009A00FDC28CC28D22AE82AF83EE4F7011C280C281C282C283C284C285D28602020BBEAA
:2000BA000114BF0011D280C281C282D283D284D285D28602020BBE0214BF0011C280C281D6
:2000DA00D282C283C284D285C28602020BBE0314BF0011C280C281C282C283D284D285C257
:2000FA008602020BBE0414BF0011D280C281C282D283D284C285C28602020BBE0514BF00F3
:20011A0011C280D281C282C283D284C285C28602020BBE0614BF0011C280D281C282C283DC
:20013A00C284C285C28602020BBE0714BF0011C280C281C282D283D284D285D28602020BE6
:20015A00BE0814BF0011C280C281C282C283C284C285C28602020BBE0914BF0011C280C23A
:20017A0081C282C283D284C285C28602020BBE0A14BF0011C280C281C282D283C284C28510
:20019A00C28602020BBE0B13BF0010C280C281C282C283C284C285C2868056BE0C13BF00EE
:2001BA0010C280D281D282C283C284C285D2868040BE0D13BF0010C280C281C282C283C2C5
:2001DA0084C285D286802ABE0E13BF0010C280D281D282C283C284C285C2868014BE0F1115
:2001FA00BF000EC280D281D282D283C284C285C28622C2B3D2B2D2B1D2B0850882850983C5
:20021A001200A012007AD2B3C2B2D2B1D2B0850A82850B831200A012007AD2B3D2B2C2B1AA
:20023A00D2B0850C82850D831200A012007AD2B3D2B2D2B1C2B0850E82850F831200A012CE
:20025A00007A22AE82AF83850A08850B09850C0A850D0B850E0C850F0D8E0E8F0F22C29030
:20027A0020940C90000012025D12008D3094FD20950C90000112025D12008D3095FD209669
:20029A000C90000212025D12008D3096FD20970C90000312025D12008D3097FDD290C291F4
:2002BA0020940C90000412025D12008D3094FD20950C90000512025D12008D3095FD209621
:2002DA000C90000612025D12008D3096FD20970C90000712025D12008D3097FDD291C292AA
:2002FA0020940C90000812025D12008D3094FD20950C90000912025D12008D3095FD2096D9
:20031A000C90000A12025D12008D3096FD20970C90000B12025D12008D3097FDD292C2935F
:20033A0020940C90000C12025D12008D3094FD20950C90000D12025D12008D3095FD209690
:20035A000C90000E12025D12008D3096FD20970C90000F12025D12008D3097FDD2932275D4
:20037A000801750900750A02750B00750C03750D00750E04750F0012027812020C80F82284
:06003500E478FFF6D8FD9F
:200013007900E94400601B7A0090039E780175A000E493F2A308B8000205A0D9F4DAF275F2
:02003300A0FF2C
:20003B007800E84400600A790175A000E4F309D8FC7800E84400600C7900900001E4F0A3C3
:04005B00D8FCD9FAFA
:0D00060075810F12039AE58260030200036A
:04039A007582002246
:00000001FF
